:100000000AC011C010C00FC00EC00DC00CC00BC084
:100010000AC009C008C011271FBFCFE5D0E0DEBF6E
:10002000CDBF02D04EC0ECCF41B1466041B942E2F3
:100030004EBD49E14DBD4FE15EE453BD42BD4BEDC8
:1000400055E055BD44BD4FE35DE063E04150504095
:100050006040E1F700C00000129844EF51E055BD48
:1000600044BD7FE38DE093E0715080409040E1F724
:1000700000C00000129A46E252E062E37FE38DE0A6
:1000800093E0715080409040E1F700C0000012986A
:1000900055BD44BD7FE38DE093E0715080409040BA
:1000A000E1F700C00000129A460F511F67FD5A95F4
:1000B000842F952F865292408D3D9540F8F26195A0
:0600C000DDCFF894FFCF34
:00000001FF
