:100000000DC027C026C025C024C024C022C021C0E6
:1000100020C01FC01EC0FFFF007F000011271FBFB0
:10002000CFE5D0E0DEBFCDBF20E0A0E4B0E0E4EA61
:10003000F1E402C031913D93A634B207D9F720E034
:10004000A6E4B0E001C01D93AC34B207E1F73AD0AA
:10005000A7C0D6CF1F930F930FB70F9310E04F9306
:100060005F936F937F93EF93FF93EBE4F0E0508106
:10007000E0E4F0E04081451710F4129801C0129AB4
:10008000EBE4F0E040814F5F4083E7E4F0E0419132
:10009000519161917081E350F0404F5F5F4F6F4F1E
:1000A0007F4F4193519361937083E350F040FF91F0
:1000B000EF917F916F915F914F910F910FBF0F91D2
:1000C0001F91189541B1466041B9129A48ED4CBF55
:1000D00016BF1EBD4AE04DBD47E250E057BD46BDCC
:1000E0004BB542604BBD789441B1476041B9E6E4FD
:1000F000F0E0E081F0E0EA5EFF4BE081A0E4B0E0F8
:10010000EC93C7E4D0E026E430E04991599169913D
:100110007881C350D0405F7766277727452B462BE1
:10012000472B99F7A22FB32F8C9190E08F5F9F4FB1
:1001300065E070E00CD0E22FF32F8083E081F0E0E7
:10014000EA5EFF4BE081A0E4B0E0EC93DECF97FBEA
:10015000072F16F4009506D077FD08D00BD007FDC9
:1001600005D03EF4909581959F4F089570956195C7
:100170007F4F0895AA1BBB1B51E107C0AA1FBB1FDD
:10018000A617B70710F0A61BB70B881F991F5A9523
:10019000A9F780959095682F792F8A2F9B2F089526
:0401A000F894FFCF01
:0601A400FF0080000005D1
:00000001FF
