:100000000AC024C023C022C021C020C01FC01EC0FF
:100010001DC01CC01BC011271FBFCFE5D0E0DEBF35
:10002000CDBF20E0A0E4B0E0E0E8F1E402C031910F
:100030003D93A434B207D9F720E0A4E4B0E001C0B6
:100040001D93AA34B207E1F702D098C0D9CF41B1CD
:10005000466041B9129AA0E4B0E082E490E028EE54
:1000600033E0E6E4F0E0C82FD92F4881CF5FDF4FBF
:100070005881C150D040622F732F641B750BAF5F46
:10008000BF4F7C936E93129AEF5FFF4F10831293D2
:100090004C91AF5FBF4F5C91A150B0401417150752
:1000A000B4F400004081EF5FFF4F5081E150F04019
:1000B0004F5F5F4FEF5FFF4F508342936C91AF5F95
:1000C000BF4F7C91A150B0404617570754F3129888
:1000D000C4E4D0E019931883C82FD92F6881CF5F6B
:1000E000DF4F7881C150D04016171707C4F40000C5
:1000F000C4E4D0E04881CF5FDF4F5881C150D04089
:100100004F5F5F4F49935883C82FD92F6881CF5FC6
:10011000DF4F7881C150D0404617570744F348E479
:1001200050E0C42FD52F4881CF5FDF4F5881C15099
:10013000D040443FD1E05D074CF44F5F5F4F68E42F
:1001400070E0C62FD72F499358838DCF48E450E0F5
:10015000C42FD52F19931883663BD3E07D073CF459
:10016000665F7F4FC82FD92F699378837CCF42E396
:1001700050E0C82FD92F4993588375CFF894FFCFFB
:04018000B603320090
:00000001FF
