:100000000AC011C010C00FC00EC00DC00CC00BC084
:100010000AC009C008C011271FBFCFE5D0E0DEBF6E
:10002000CDBF02D04CC0ECCF41B1466041B942E2F5
:100030004EBD49E14DBD4FE15EE453BD42BD44EFCD
:1000400051E055BD44BD4FE35DE063E04150504099
:100050006040E1F700C0000012987FE38DE093E07C
:10006000715080409040E1F700C00000129A46E2D3
:1000700052E055BD44BD62E37FE38DE093E07150F3
:1000800080409040E1F700C0000012987FE38DE0CF
:1000900093E0715080409040E1F700C00000129A58
:1000A000460F511F67FD5A9555BD44BD842F952FAE
:1000B000865292408D3D9540F8F26195DDCFF894DF
:0200C000FFCF70
:00000001FF
